:020000040000FA
:1000000070030020F5030000FD030000FF03000063
:1000100001040000030400000504000000000000CB
:1000200000000000000000000000000007040000C5
:1000300009040000000000000B0400000D04000093
:100040000F04000011040000130400001504000058
:1000500017040000190400001B0400001D04000028
:100060001F040000210400002304000025040000F8
:1000700027040000290400002B0400002D040000C8
:100080002F04000031040000330400003504000098
:1000900037040000390400003B0400003D04000068
:1000A0003F04000041040000430400004504000038
:1000B00047040000490400004B0400004D04000008
:1000C0004F040000510400005304000055040000D8
:1000D00057040000590400005B0400005D040000A8
:1000E0005F040000610400000000000063040000E1
:1000F0006504000067040000690400006B04000050
:100100006D0400006F04000071040000730400001F
:1001100000000000000000007504000077040000EB
:10012000790400007B0400007D0400007F040000CF
:10013000810400008304000085040000870400009F
:1001400000000000000000000000000000000000AF
:10015000890400008B0400008D0400008F0400005F
:10016000000000000000000000000000000000008F
:10017000000000000000000000000000000000007F
:10018000000000000000000000000000000000006F
:10019000000000000000000000000000000000005F
:1001A000000000000000000000000000000000004F
:1001B00091040000930400009504000097040000DF
:1001C000990400009B0400009D0400009F040000AF
:1001D000A1040000A3040000A5040000A70400007F
:1001E000A9040000AB040000AD0400000000000002
:1001F00000000000AF040000B1040000B3040000E0
:10020000B5040000B704000000000000000000007A
:10021000B9040000BB040000BD040000BF040000DE
:10022000C1040000C3040000C5040000C7040000AE
:10023000C9040000CB040000CD040000CF0400007E
:10024000D1040000D3040000D5040000D70400004E
:10025000D9040000DB040000DD040000DF0400001E
:10026000E1040000E3040000E504000000F002F8EF
:1002700000F0B0F814A696E8000CB244B344DA4596
:1002800001D100F0A7F8BAE80F000FA696E83000F9
:10029000A5EB040504EB0607AAEB0704A7F1010789
:1002A0004FEA15154FEA3414A4F10104AC4201D30E
:1002B00000F090F813F0010F18BFFB1A43F0010390
:1002C00000F001F8DBE71847D4270000F42700000E
:1002D000103A24BF78C878C1FAD8520724BF30C872
:1002E00030C144BF04680C607047000070470000D4
:1002F0000023002400250026103A28BF78C1FBD82F
:10030000520728BF30C148BF0B6070476E2900F00C
:10031000A981702900F0DF82662902F03083652907
:1003200002F02D83672902F02A83612902F02983D4
:1003300003681B0A28BF41F08001692900F056813B
:10034000642900F05381752900F050816F2900F075
:100350006D82782900F0AB82E92900F00782E42958
:1003600000F00482F52900F00182EF2900F06A8292
:10037000F82900F0AA820368DB0928BF41F0800158
:10038000632900F0C387732900F0C887E32900F0D0
:10039000D387F32900F0D887002070471FB502F0FB
:1003A000E1FA9DE8030001F0B5FB01F09DF80400BF
:1003B0000020002102F0C0FA401C606000200021F3
:1003C00002F0A4FAE06000F0C7FF1FBD10B501F015
:1003D0002CF810BDDFF80CD0FFF7E0FF01F096FE1F
:1003E00001F012FB0080002003B4FFF7EFFF03BC15
:1003F00001F04CFD3F4880473F480047FEE7FEE7DD
:10040000FEE7FEE7FEE7FEE7FEE7FEE7FEE7FEE7C4
:10041000FEE7FEE7FEE7FEE7FEE7FEE7FEE7FEE7B4
:10042000FEE7FEE7FEE7FEE7FEE7FEE7FEE7FEE7A4
:10043000FEE7FEE7FEE7FEE7FEE7FEE7FEE7FEE794
:10044000FEE7FEE7FEE7FEE7FEE7FEE7FEE7FEE784
:10045000FEE7FEE7FEE7FEE7FEE7FEE7FEE7FEE774
:10046000FEE7FEE7FEE7FEE7FEE7FEE7FEE7FEE764
:10047000FEE7FEE7FEE7FEE7FEE7FEE7FEE7FEE754
:10048000FEE7FEE7FEE7FEE7FEE7FEE7FEE7FEE744
:10049000FEE7FEE7FEE7FEE7FEE7FEE7FEE7FEE734
:1004A000FEE7FEE7FEE7FEE7FEE7FEE7FEE7FEE724
:1004B000FEE7FEE7FEE7FEE7FEE7FEE7FEE7FEE714
:1004C000FEE7FEE7FEE7FEE7FEE7FEE7FEE7FEE704
:1004D000FEE7FEE7FEE7FEE7FEE7FEE7FEE7FEE7F4
:1004E000FEE7FEE7FEE7000004480549034A054B26
:1004F00070470000012000006D0200007001002024
:1005000070030020700100200FB4044910B503AA45
:10051000029800F0BBF810BC5DF814FB64000020EA
:1005200070477047704770B5044685690068C1061A
:1005300001D5302600E02026C00707D070BDD4E9E1
:10054000012130469047206A401C20626D1EF6D57E
:1005500070BD70B5044685690078C00707D170BDCD
:10056000D4E9012120209047206A401C20626D1EA2
:10057000F6D570BD09684A0501D540B27047C90576
:10058000FCD500B2704709684A0501D5C0B2704772
:10059000C905FCD580B2704770B50C460546012AE6
:1005A00005D02878800600D5EA69002302E00123FF
:1005B00005E05B1C934202D2E05C0028F9D1A869F7
:1005C000E618C01AA861286A184428622846FFF76E
:1005D000AAFF04E0D5E9012114F8010B9047B442C9
:1005E000F8D32846FFF7B5FF70BD00002DE9F041B4
:1005F0000646002410687529314616A510D0FFF76D
:10060000B9FF002802DA404213A507E031688A07E3
:1006100001D512A502E0490704D511A5012401E086
:10062000FFF7B1FF00210A2206F1240709E0B0FB21
:10063000F2FCB0FBF2F302FB1C0030307854184699
:10064000491C0028F3D123462A463046BDE8F04134
:1006500000F055BA000000002D0000002B00000043
:100660002000000011680268006A530501D5087077
:100670000AE0D30501D5088006E0130603D5C217AA
:10068000C1E9000200E0086001207047074B70B527
:100690000D467B4400F01DFE0446284600F058FE3F
:1006A00010B14FF0FF3070BD204670BD59220000E0
:1006B0002DE9FF5F15468A460446DFF8AC80F84412
:1006C0000027D8E900103E46CDE9001010E05AF8A6
:1006D00026106A4602A800F0DBFE411C07D02178F4
:1006E000890603D5E269391891420DD80744761C72
:1006F0002078800602D5E069B84205DDAE42E6DB2F
:100700005AF826000028E2D1A069C01BA06120464B
:10071000FFF709FFD8E90010CDE90010002017E02D
:100720005AF828106A4602A800F0B2FEB0F1FF3F66
:1007300081460BD000250DF1080B05E0D4E901211D
:100740001BF8050090476D1C4D45F7D308F10100DB
:10075000B0428046E4DB206A384420622046FFF73E
:10076000F8FEBDE8FF9F0000C62200002DE9F04121
:100770008046D21D22F007020025D2E90002F529A9
:1007800015A614D0011E72F1000106DA0023D0EB89
:10079000030063EB020211A608E0D8F800108B07F3
:1007A00001D50FA602E0490701D50EA60125114685
:1007B000002408F1240704E000F05CF930323A55D7
:1007C000641C50EA0102F7D12B46324621464046CE
:1007D000BDE8F04100F093B9000000002D000000DA
:1007E0002B0000002000000030B4002100F12404A0
:1007F00008E002F00705D208303542EA4372DB0810
:100800006554491C52EA0305F3D10468002310A281
:10081000250708D504F020040C4304D0C469012343
:100820000CA2641EC46130BC00F069B910B5044666
:1008300021461068FFF7A7FE02462046BDE810409B
:100840000023D1E7D21D22F00701D1E90023CBE735
:100850000000000030000000F0B40D4601880905DA
:1008600002D5214C7C4402E01F4C7C440E34002114
:1008700000F1240608E002F00F071209E75D42EAE2
:1008800003721B097754491C52EA0307F3D102781B
:100890000023120704D5702D06D009B102231134AC
:1008A0002246F0BC00F02BB901231034F8E770B5F4
:1008B00004460D4621461068FFF765FE02462946AC
:1008C0002046BDE870400023C6E7D21D22F0070392
:1008D000D3E90023C0E70368126843F020030360F4
:1008E0000823C3610023B7E7282100002DE9F05F4A
:1008F000894604464FF0000ADFF874B1FB44C0F8A3
:1009000020A02046E1688847002874D0252806D01A
:10091000D4E901219047206A401C2062F1E70026BB
:100920005F462046E16888472028054607DB312DD1
:1009300005D2781910F8200C08B10643F1E7B0078A
:1009400001D526F00406C4F81CA00027C4F818A09E
:100950002A2D09D0284601F0C3FF38B304EB8708DD
:10096000303DC8F8185019E059F8041B204604EB34
:1009700087029161E1688847012F054618D1E06937
:10098000002820DA26F020061DE0D8F8180000EB39
:10099000800005EB40003038C8F818002046E168B8
:1009A0008847054601F09CFF0028EED1012F0AD0B0
:1009B0002E2D08D12046E16888477F1C0546022F6E
:1009C00046F02006C4DBA069002803DA404246F066
:1009D0000106A061F00701D026F010066C2D0BD0A7
:1009E000682D09D04C2D39D06A2D35D0742D35D0D5
:1009F0007A2D33D016E038E0E1682F46204688474C
:100A0000B842054609D16C2F26D04FF48060E168CA
:100A1000064320468847054604E06C2F1AD04FF461
:100A2000807006430DB3A5F14100192802D8203586
:100A300046F400664A462946204626604E46FFF7A1
:100A400065FC80B101280BD0F61D26F0070000F1EF
:100A5000080956E74020E4E78020D8E70020D6E7E1
:100A600006F104094DE7284652E7206ABDE8F09FE9
:100A7000B820000030B5B0F10A0271F100034FEA6E
:100A8000900E4EEA817EB0EB0E0061EB91014FEAD1
:100A9000101E4EEA017E10EB0E0041EB11114FEAE1
:100AA000102E4EEA016E10EB0E0041EB11214FEAC1
:100AB000104E4EEA014E10EB0E0041EB1141401872
:100AC00041F100014FEAD00040EA41704FEAD10104
:100AD0004FEA810444EA907410EB800544EB010472
:100AE0006D1944EB0404521BA3414FF0000348BFAF
:100AF0000A3200D530BD401C41F1000130BD2DE966
:100B0000F0470D4699469246044600F124080168D4
:100B1000880604D5E06921F01001216000E0012081
:100B2000A84201DD471B00E00027A1697A1902EB0A
:100B30000900081AA0612078C00602D42046FFF7F9
:100B4000F2FC002608E0D4E901211AF806009047DB
:100B5000206A401C761C20624E45F4DB2078C006DB
:100B60000AD52046FFF7DFFC06E0D4E9012130205A
:100B70009047206A401C2062381EA7F10107F4DC70
:100B800007E0D4E9012118F805009047206A401CCD
:100B90002062281EA5F10105F3DC2046FFF7D9FCF1
:100BA0002078000602D50220BDE8F0870120FBE78F
:100BB0002DE9FF4F0C461E464FF0FF378BB0D2E9B0
:100BC0000001DDF860800A908A46C1F30A5505B934
:100BD0003D46002108464FF00000BAF1000F00F436
:100BE000400005DA00EB80004FF4400101EA5000BC
:100BF0004FEA9059B9F1010F00DDB9460A9850EA61
:100C00004A000ED044F61050A5F2FF3545432F148C
:100C1000B8F1000F1ED07542291E1EDDC9F1000279
:100C20001CE0B8F1010F4FF0000001D0302103E0CB
:100C3000F24305E02154401CB042FBDB3046002269
:100C4000002121540B99C1F80880C1E900200FB0A0
:100C5000BDE8F08FBD1B6D1CDEE74A4600DA694235
:100C600006A800F0ADFC06AB93E8070003AB83E8F1
:100C7000070050460A9901F052FA8DE80700A0F5E6
:100C800000501F3800900398002D0ADD42F21F012A
:100C90004A460844002303A90390684601F0BCFCBF
:100CA00009E0A0F500504A461F38002303A903902D
:100CB000684601F0C6FC8DE807000004000C03D074
:100CC0004FF0FF30410800E01046B8F1000F03D0AC
:100CD0000022009215461EE0751E05D4FFF7CAFEDD
:100CE000303262556D1EF9D5B3460122084302D059
:100CF00000227F1C04E02078302801D100227F1ED2
:100D0000002A099784D01DE0112D07DAFFF7B2FE03
:100D1000303262556D1C50EA0102F5D1084302D011
:100D20000098C8B10EE00021681E05E0235C625CFB
:100D300063542254401E491C8142F7DBAB46A81B7A
:100D4000401E0990002004F80B000B98099AC0F887
:100D50000880C0E9002B7AE711264FF0000857E71A
:100D60002DE9F04F88460446D21D22F0070191B0CC
:100D7000D1E90001CDE90A0101F09AFD02460B9884
:100D8000C00F01D02D2007E02068810701D52B205E
:100D900002E0202101EAC000032A099001D0072ABD
:100DA00005DB03464146204600F0CAFB0BE12078F4
:100DB000800601D5E06900E00620B8F1650F8146A4
:100DC00006D0B8F1660F18D0B8F1670F70D131E0D6
:100DD0000020B9F1110F009001DB112301E009F1AE
:100DE00001030AAA01A90CA8FFF7E2FEDDE90C70D5
:100DF000002609F10105834647E001204B4600909B
:100E00004FF000470AAA01A90CA8FFF7D1FEDDE9BF
:100E10000DB00C995D46002610B909F101000D18BE
:100E2000B9EB050003D4C0F1FF3609F10105A5EBCC
:100E300009002BE0B9F1010F01DA4FF001090020A0
:100E4000B9F1110F0090484601DD112300E003467F
:100E50000AAA01A90CA8FFF7ABFEDDE90C704D460C
:100E600000268346207800070AD4AB4500DA5D46A9
:100E700001A8012D04DD411911F8011C302907D00A
:100E80004F4502DA17F1040F04DA012082460FE021
:100E90006D1EEEE7002F02DCED1B3E4403E0781CE4
:100EA000A84200DD7D1CB81B00F1010A4FF000478D
:100EB0002078000703D4AA4501DB4FF0FF3A002158
:100EC000B7F1004F0DF143088DF8431024D00220F4
:100ED0002B23002F01DA7F422D230A21021EA0F1CD
:100EE000010000DC5FB197FBF1FC97FBF1F201FB25
:100EF0001C7C17460CF1300C08F801CDEEE7A8F188
:100F0000010003702188090501D5452100E0652114
:100F1000A0F1010800F8011C09980FA9A1EB08072E
:100F2000FF1D00B10120411901EBEA70A1693844AD
:100F3000081A401EA0612078C00602D42046FFF7A0
:100F4000F2FA099828B1D4E901219047206A401C9F
:100F500020622078C00622D52046FFF7E4FA1EE082
:100F6000002E04DBB34502DD01A8805D00E03020E7
:100F7000D4E901219047206A401C2062761CAAF126
:100F800001005FEA000A0AD100F0AEFAC068016809
:100F9000405CD4E901219047206A401C2062281E51
:100FA000A5F10105DCDC07E0D4E9012118F8010B0B
:100FB0009047206A401C2062381EA7F10107F3DC2D
:100FC0002046FFF7C6FA032011B041E62DE9F04FA5
:100FD00004460D46D21D22F0070089B0D0E90097E3
:100FE0004846394601F064FC0246F80F01D02D2333
:100FF00007E02068810701D52B2302E0202101EAC8
:10100000C0038DF820300BB1012000E00020032A3E
:10101000824601D0072A04DB2946204600F090FAD8
:101020003FE12078800601D40D2500E0E569C7F393
:101030000A560D2D49DA00214FEA175B08464FF09A
:101040000000002F00F4400007DA00EB80004FF4AE
:10105000400100EBD07001EA60008115012901DD3B
:101060004FF0FF3100224FEA850CBCF1180F06D378
:101070001346ACF118004FF08052C24003E04FF429
:10108000801323FA0CF30CF10C0CBCF1200F04D3E9
:10109000ACF1200C09FA0CF001E007FA0CF0002981
:1010A0004FF0004801DD18B90FE00ED140450CD3D8
:1010B00019EB02095F4121B9404502D19F4329EA5A
:1010C0000209BBEB175F00D0761C2088000502D513
:1010D0007B48784402E07A487844193808AA3023DB
:1010E00002F80A30037C0AF10101002E0AF1020A1B
:1010F00053546A4602DC4FF0300101E04FF03101F9
:101100004FF001088DF8001002D0A6F2FF3603E080
:1011100059EA470100D06B4E002D02DC2178090707
:1011200004D54FF002082E218DF80110C44600218D
:101130000BE0C7F303433F01C35C491C6D1E02F87B
:101140000830052908F1010801DA002DF1DC002141
:101150000CE000EB1973491C1B786D1E082902F87E
:1011600008304FEA091908F1010801DA002DF0DC16
:1011700021688B0602D516E0A8F10108E04505DDDF
:1011800002EB080313F8013C302BF5D0B8F1000F47
:1011900009DD02EB080313F8013C2E2B03D10907EC
:1011A00001D4A8F10108002D05DD3E2102F8081048
:1011B0006D1E08F10108407C002E02F8080008F1BD
:1011C000010804DA2D20764202F8080002E02B2004
:1011D00002F808000A214FF47A70864208F10108EB
:1011E0000BDB96FBF0F3303302F8083096FBF0F39C
:1011F00008F1010800FB136601E0642E0CDB64209B
:1012000096FBF0F3303302F8083096FBF0F308F168
:10121000010800FB136601E00A2E06DB96FBF1F0E5
:10122000303002F8080008F1010896FBF1F001FBEC
:101230001060303002F80800A16908F1010808EBDD
:10124000050202EB0A00081AA0612078C00602D449
:101250002046FFF768F9216A08AE01EB0A00206218
:1012600004E0D4E9012116F8010B9047BAF1010A14
:10127000F7D22078C00602D52046FFF754F96E4613
:1012800009E016F8010B3E280FD0D4E90121904760
:10129000206A401C2062B8F10108F2D22046FFF714
:1012A00058F909B00320BDE8F08F206A2844206275
:1012B00003E0D4E90121302090476D1EEBD3F8E71D
:1012C0000619000002FCFFFF01694A1C0261087850
:1012D000704700B58FB0CDE9013100210591054976
:1012E0007944CDE9031011466846FFF7FFFA0FB0C5
:1012F00000BD0000E5FFFFFF10B5436913B1AFF378
:10130000008001E0FFF748F9012010BD127800F1DC
:1013100024010A7000224A700122EDE711684FF0A3
:10132000FF32E9E710B5436913B1AFF3008001E084
:10133000FFF7BEF9012010BD126800F124014262DE
:10134000002282620122EDE711684FF0FF32E9E7E7
:10135000007B00F08000704710B54248542100F037
:1013600063FB4148542100F05FFB4048542100F0EA
:101370005BFB3F493B483C4A3F4B08603D490A60A4
:101380003A491960531C0365481C10650120086523
:101390003B48344A39A1784400F098FA20B93848DB
:1013A00078440A3800F039FB37482F4A35A1784491
:1013B00000F08CFA20B9344878440A3800F02DFB4C
:1013C00032482A4A2FA1784400F080FA20B92F48E9
:1013D00078440A3800F021FB40232248DC00002139
:1013E000224600F050FA20B125487844543800F0E5
:1013F00014FB1D4822464023002100F044FA20B18E
:1014000021487844543800F008FB1848224610233D
:10141000002100F038FA002806D01C487844BDE8C6
:101420001040563800F0F9BA10BD104870B5006D84
:1014300020F001040B4800F0C1FA0B4800F0BEFA9E
:101440000A4800F0BBFA09E0206D20F001052046B3
:1014500000F0B4FA204600F04BF82C46002CF3D1F3
:1014600070BD00001000002064000020B8000020C3
:10147000000000200400002008000020720000008E
:101480005516000077000000411600002D160000E0
:101490002DE9F04116460C46054600F01DF803689C
:1014A00093F80101012807D0FF2C12D8185D80B1F4
:1014B00001202C70BDE8F081D3F8070132462146A7
:1014C00003F20713C7182846BC46BDE8F0410123C4
:1014D00060474FF0FF30EDE710B500F005F8001D54
:1014E00010BD00BF55140000004870472C010020BB
:1014F00070B50446051F00F0F1FA0068002C14BF17
:10150000446870BD002C18BFAC423CBF20466468E4
:10151000F8D301680A18AA4218BF456003D12A68A7
:1015200005461144016028684119A1421CBF6C6046
:1015300070BD6168696021680844286070BD000062
:101540002DE9F0411F46044603260168072A01F4ED
:10155000006004DB08B116A505E016A503E008B19C
:1015600015A500E015A521F010002060A069C01E9F
:10157000A0610FB1401EA0612046FEF7D4FF4FB11D
:10158000D4E9012138469047206A401C2062C01CE3
:10159000206206E0206AFAE7D4E9012115F8010B80
:1015A0009047761EF8D22046FEF7D3FFBDE8F081C3
:1015B0004E414E006E616E00494E4600696E6600F7
:1015C0002DE9F047814616468AB0354878440DC863
:1015D0008DE80D0032487844801C03AC0DC884E8C7
:1015E0000D0041F69B300844372190FBF1F290FB4F
:1015F000F1F5A5F1800501FB12041B3C02D5644204
:10160000012000E00020DFF898A080460027FA447F
:10161000AAF1BE0A0EE0E0070AD03246684607EBA0
:10162000470101230AEB810101F00BF88DE8070067
:1016300064107F1C002CEED1194F7F44AE3F19E09F
:10164000E80715D007EB04100DF1180A90E80E001A
:101650008AE80E00C068F04201D19819089032461D
:10166000012306A903A800F0ECFF03AB83E8070001
:101670006D10641C002DE3D14FF001033246694622
:10168000B8F1000F03A802D000F0C6FF01E000F09F
:10169000D8FFC9E90001C9F808200AB0BDE8F08701
:1016A000A81400002DE9F05F054617460C46C868EF
:1016B00020F4201040F48000C860800602D508465F
:1016C00000F065FBE06841F282014FF0FF3A014013
:1016D000022903D0204600F0F7FAB9E000F42041D7
:1016E000B1F5004F0FD1C00306D56168E06A8842AA
:1016F00000D80846606006E02069E06260606069CA
:1017000000F0E6F9A061A0680022EEB200280DDA30
:10171000E1688B050AD4C043A06041F49030226098
:10172000E0606068411C61600670AAE0E068914674
:10173000226040F40050E060206978BB606900F0EE
:10174000B9F904F124054FF00108A8B1A08910F4FB
:10175000407F08D0E06900F00CFA206118B1E06821
:1017600040F4006017E0C4F81C802561E06820F4B4
:10177000407040F480600EE0E06900F0FAF9002863
:101780002061F0D0E06840F4006010F4407FE06039
:1017900002D140F48070E06020696060E0682569F3
:1017A0006FF0010BC1051ED56168E06A884200D860
:1017B0000846411B04D02246284600F08FFAE8BBB9
:1017C0001FB1E562C4E9015959E0681CE06260603C
:1017D000E069401EA060E06840F48030E060304680
:1017E0002E70BDE8F09F17B100F480320AE0606807
:1017F000411C61600670E0680A2E40F48030E060B1
:1018000006D00022E16A6068814203D90B4602E0FB
:101810000122F7E70346B4F80CC05B1B5FEA4C5C9F
:1018200004D4D4F81CC09C4500DD02B3814200D82A
:101830000146002BA1EB0008E56200E008E0C4E9E6
:10184000015907DD22461946284600F047FA08B13B
:101850005046C6E7B8F1000F09D0A169E56265609E
:10186000A1EB0800A061E06840F01000E06047B123
:101870006168A069E562491B08446560A06158463B
:10188000AFE73046ADE770B5C468A50713D0650271
:1018900011D4B2F5807F09D0B2F5007F06D0B2F541
:1018A000806F08D1012300F1240106E05D1E6FF076
:1018B0007F46B54201D3012070BD0161C361416023
:1018C00024F470611143C160002070BD2DE9F04126
:1018D0000C461646070047D0104600F06FF82078F7
:1018E000611C61280AD0722802D077283CD102E01E
:1018F0000125002405E00225042402E0082448F222
:10190000020511F8010B2B2806D0622809D011F826
:10191000010C74280AD00BE045F0030544F00204E2
:10192000EFE745F0040544F00104EAE744F0100451
:101930003846214600F09FF8411C15D00021316146
:1019400071604FF40071F560F1617061200704D59A
:1019500030460222002100F03BF9306D40F00100DA
:1019600030653046BDE8F0810020FBE72DE9F0410D
:101970000D460646104C206DC10704D0410804D026
:1019800020F00104F7E722460EE0542000F0F1F8C1
:1019900007000ED0206D47F0010108435421206557
:1019A000384600F041F83A4629463046BDE8F04155
:1019B0008CE70020D6E70000100000202DE9F0475A
:1019C00004464FF0FF380026C568D4E90497A807FD
:1019D00018D0204600F0B8F9384600F056F8002834
:1019E00000DA4646280502D54846FFF781FD4C211E
:1019F000204600F019F8206D20F0010020653046E7
:101A0000BDE8F0874046FBE710B50446AFF3008021
:101A10002046BDE81040FEF7E7BC10B500F0DEF947
:101A2000BDE8104000F0D4B94FF0000200B51346F5
:101A300094469646203922BFA0E80C50A0E80C50EE
:101A4000B1F12001BFF4F7AF090728BFA0E80C509F
:101A500048BF0CC05DF804EB890028BF40F8042B98
:101A600008BF704748BF20F8022B11F0804F18BF05
:101A700000F8012B70470EB5CDE9000100F06EFAB9
:101A8000029069460120ABBE0EBD08B569460090C4
:101A90000220ABBE08BD1FB58DE8070069460520D2
:101AA000ABBE04B010BD1FB58DE80F00694606201F
:101AB000ABBEF6E708B5694600900920ABBE08BD8D
:101AC0001CB5CDE9000169460A20ABBE1CBD7047BC
:101AD00008B5694600900C20ABBE08BD00487047B1
:101AE00014010020704770477047704738B50446AE
:101AF0000A4600206946AFF30080002808BF38BDC1
:101B000002460099204600F0CEF9012038BD0120A0
:101B100000F01DBAF8B5AFF30080054600200C4672
:101B20000C2000BF0646A819A0420DD932466946CE
:101B30000020AFF30080070008BF00F008FA00980B
:101B4000A04218BF0546C419FFF7C8FF0560074645
:101B5000F01D20F007004619284600F09EF9B44217
:101B600008BFF8BDA21B31463868BDE8F84000F058
:101B70009AB970B50646FFF7B1FF056806F10B008C
:101B800020F00704B4429CBF002070BD2B466A6859
:101B9000BAB11068A04210D304F1080188423CBFDA
:101BA0005068586007D35168101941601168091BCB
:101BB000016058601460101D70BD13465268002A01
:101BC000E7D121462846FFF791FF0028DED170BDFE
:101BD0002DE9F041044616460D464769007B800713
:101BE0002ED03846FFF766FF50BB3EB3012E02D021
:101BF000022E25D104E0204600F06FF905441DE0D7
:101C00003846FFF765FFE168002841F01001E16008
:101C100005DA204600F058F80120BDE8F081C9033C
:101C20000BD56268E16A914200D81146A26911445D
:101C30002269891A814200DD08460544002D01DA37
:101C40000220EAE7E16A6068E268814206D2910315
:101C5000E06203D522F4003141F01002A6690027AA
:101C6000AE4213DCE16A814201D90B4600E0034633
:101C700003EB060C2369ACEB030CAC4506DD81429B
:101C800001D98C4600E084469C4505D1A7602760B9
:101C900042F02000A5620DE0AD1BE669AE1B81425B
:101CA000A66000D90846C01A281A2060581960603A
:101CB00022F0200003490840E060002084F84870CA
:101CC000ABE70000BFCFD7FFC16821F4001141F09E
:101CD0008001C16000218160016070472DE9F74FEC
:101CE00015460C464FF0FF3B3848D768D2F814A091
:101CF000074209D05046A969FFF7E2FE002819DB28
:101D00003248C0430740EF604FF000496FF0004891
:101D10004C4501D3464600E0264600993B465046D6
:101D20003246FFF7B8FEA96920F00042B21A11440A
:101D3000A96128B12846FFF7C7FF5846BDE8FE8FC6
:101D4000A41BE5D10020F9E770B504460569C06A17
:101D50006168884200D80846E16821F42011E160FA
:101D6000C90312D5A84208D02246411B2846FFF7D6
:101D7000B5FF10B14FF0FF3070BD0020E562C4E93F
:101D80000150E06820F48030E060002070BD10B5A4
:101D90000446C06820F02000E060A16AA069884283
:101DA0000DD02046FFF7D0FFE06820F4405040F00F
:101DB0001000E060A06AA0612069E062606044F207
:101DC0004001E0688843E06010BD000010000200A0
:101DD000002801D000F05AB87047000010B5014645
:101DE00002A000F09BF8012010BD000053494752AB
:101DF000545245443A2052656469726563743A20CE
:101E000063616E2774206F70656E3A2000000000D9
:101E100030B44FF0013C50F8042B51F8043BCCFA9D
:101E200052F4D51A20D1FCB950F8042B51F8043BD8
:101E3000CCFA52F4D51A17D1B4B950F8042B51F892
:101E4000043BCCFA52F4D51A0ED16CB950F8042BDD
:101E500051F8043BCCFA52F4D51A05D1002CDAD053
:101E600030BC4FF00000704729BAB1FA81F111F08F
:101E70001801D1F120008440F2D1CA40CB4012F0C9
:101E8000FF0213F0FF0330BCD01A7047014918203D
:101E9000ABBEFEE7260002007047002101604160F2
:101EA00070470C207047034640688C46002818BFD6
:101EB00088423CBF03464068F8D3186818448842FB
:101EC00007D00CF1030020F00700001D411A521A40
:101ED0000146081D0A60FFF70BBB10B50146C2683A
:101EE000900703D0900607D5886A0AE000F05CF8F6
:101EF00001210160881E10BD8B69486818440B6978
:101F0000C01A91F848301BB191F84910401A10BD21
:101F10001103FCD50028FADD401E10BD70B5054642
:101F20000C460A2000E06D1C00F037F835B1287827
:101F30000028F8D102E0641C00F02FF814B12078DA
:101F40000028F8D1BDE870400A2000F026B810B58E
:101F500000F02EF8BDE81040FFF73ABF10B5431C63
:101F600002E010F8011B71B18107FAD14FF0013284
:101F700002C88C1A8C4314EAC211F9D0C01A0A069E
:101F800003D0C01E10BDC01A10BD0A0401D0801EAF
:101F900010BD0902FCD0401E10BD08B569468DF881
:101FA00000000320ABBE08BD004870470C010020B4
:101FB00010B5012805D0002103A0FFF7AFFF0120D5
:101FC00010BD09A1F8E7000053494752544D454D53
:101FD0003A204F7574206F662068656170206D65CA
:101FE0006D6F7279000000003A2048656170206DC5
:101FF000656D6F727920636F7272757074656400BD
:1020000081B04EF68851CEF20001086840F47000AD
:1020100008604EF27001C4F20F0142F61000C0F2E7
:10202000807008604EF26002C4F20F0243F6D120C5
:10203000C0F28E70106042F64250C0F29E101060E6
:1020400042F60000C0F28010086000200090FFE718
:102050000098C0087C2805D8FFE7FFE7009801300A
:102060000090F5E74EF26001C4F20F0140F64250D5
:10207000C0F29E1008604EF27001C4F20F0140F6EB
:102080000000C0F28010086000200090FFE7009878
:10209000C0087C2805D8FFE7FFE7009801300090D2
:1020A000F5E74EF26001C4F20F0140F64250C0F273
:1020B000DE100860FFE74EF25000C4F20F00006827
:1020C00000F04000402801D0FFE7F4E74EF2600145
:1020D000C4F20F0140F24250C0F2DE1008604EF22E
:1020E0007001C4F20F014FF0C07008600020009032
:1020F000FFE7009842F20F71884205D8FFE7FFE73B
:10210000009801300090F4E701B0704780B542F6C6
:102110009020C0F20000FEF7F7F9002080BD5FEAD2
:10212000400C08BF91F0000F4FEA8C234FEAC12208
:1021300043EA51514FEA1C5018BF00F5F0404FEAF6
:10214000300018BF41F000415FEA6C5C00F029806C
:10215000BCF1FF3F08BF40F080407047130C06BF42
:1021600012044FF0100C4FF0000C130E04BF1202BB
:102170000CF1080C130F04BF12010CF1040C930FA7
:1021800004BF92000CF1020CD30F04BF52000CF1FB
:10219000010C11464FF00002A0F11F00A0EB0C0053
:1021A000704711F0004F08BF704731F000413FF415
:1021B000D5AF0B0C06BF09044FF0100C4FF0000C0C
:1021C0000B0E04BF09020CF1080C0B0F04BF090130
:1021D0000CF1040C8B0F04BF89000CF1020CCB0F27
:1021E00004BF49000CF1010CCCF1200322FA03F3E7
:1021F00041EA030102FA0CF2A0EB0C0000F101002D
:102200007047000023F07F4720F07F4C80EA0300F6
:1022100000F00040ACEB070303F57C5303F1FF0330
:102220002DE9804909B44FEA144324EA03484FEAF0
:10223000154B25EA0B4E0FF2042606EB13273E78CA
:1022400003FB0667C7F5000707FB06F64FEAD6460D
:1022500006F102064FEA543707FB066CCCF1005C2E
:102260004FEA1C472CEA074C0CFB06F507FB06F46B
:1022700004EB15464FEA961649085FEA320234BF6E
:1022800000204FF000404FEAD13706FB07FC4FEA31
:102290001C4C0CFB0BF7D21B03FB0CF761EB07018B
:1022A0000CFB0EF7B0EB074072EB17420CFB08F784
:1022B00034BFA2EB0742B2EB074261EB17414FEA92
:1022C0000C444FEA910706FB07FC4FEA1C4C0CFB41
:1022D0000BF7B0EBC74072EB573203FB0CF734BF80
:1022E000A2EBC742B2EBC74261EB57310CFB0EF7D2
:1022F000B0EBC70072EB57720CFB08F734BFA2EBD0
:10230000C702B2EBC70261EB57714FEA816141EA44
:1023100092114FEA826242EA90124FEA806004EB27
:10232000CC04039F4FEAD13706FB07FC4FEA1C4C55
:102330000CFB0BF7D21B03FB0CF761EB07010CFB4B
:102340000EF7B0EB074072EB17420CFB08F734BFF7
:10235000A2EB0742B2EB074261EB17414FEA8C5503
:1023600004EB9C244FEA910706FB07FC4FEA1C4C48
:102370000CFB0BF7B0EBC74072EB573203FB0CF7CB
:1023800034BFA2EBC742B2EBC74261EB57310CFB43
:102390000EF7B0EBC70072EB57720CFB08F734BFB7
:1023A000A2EBC702B2EBC70261EB57714FEA816142
:1023B00041EA92114FEA826242EA90124FEA80604B
:1023C00015EB4C2544F100044FEAD13706FB07FC1E
:1023D0004FEA1C4C0CFB0BF7D21B03FB0CF761EB19
:1023E00007010CFB0EF7B0EB074072EB17420CFB3A
:1023F00008F734BFA2EB0742B2EB074261EB17418B
:102400004FEA813141EA92414FEA823242EA9042F8
:102410004FEA80304FEA0C7615EB1C1544F10004AE
:1024200048EA03434EEA0B484FF0000EB2EB080CAB
:1024300071EB030724BF624639464EEB0E0E4FF098
:10244000000B0018524149414BEB0B0BB2EB080C4F
:1024500071EB03077BF1000B24BF624639464EEB5C
:102460000E0E4FF0000B0018524149414BEB0B0B85
:10247000B2EB080C71EB03077BF1000B24BF624643
:1024800039464EEB0E0E51EA020718BF46F0010620
:1024900016EB0E7655F1000254F1000103D5BDE8AC
:1024A0008901BDE80088BDE88901BDE80048B6198A
:1024B000524141EB0101A3F10103704780807F7E0F
:1024C0007D7C7B7A797877767675747372717170AA
:1024D0006F6E6E6D6C6C6B6A6A696868676666655C
:1024E0006464636362616160605F5F5E5E5D5D5CEA
:1024F0005C5B5B5A5A59595858575756565555555B
:102500005454535352525251515050504F4F4F4EBA
:102510004E4D4D4D4C4C4C4B4B4B4A4A4A49494908
:10252000484848474747474646464545454444444A
:102530004443434343424242424141419C46002B73
:1025400030D477002BD04FEA37071CB503B44FF0D7
:1025500010004FF01001BAF1000F06D0BCF1000FCF
:10256000DCBF40F0080040F008014FF000000FBC55
:10257000BDE810400BF1010BBBF1010F08BF5FEA92
:10258000170722BF12F1010211F101014FF00041C2
:1025900043F1000300F0004043EA00007047F9D324
:1025A0005708D0E746EA06464FEA164613F1400FB1
:1025B0001FDD13F1200FDFBF16430A460021203331
:1025C0005B42BED0C3F1200746EA06464FEA1646F4
:1025D00002FA07F746EA070622FA03F2C3F12007D8
:1025E00001FA07F742EA070221FA03F14FF000036C
:1025F000A7E746EA020646EA06464FEA164646EAD4
:102600000106BCBF46EA0646360C4FF000034FF009
:1026100000024FF0000194E72DE9804C70B49A4617
:10262000934691E8380007C831EA400C48BF34EAC5
:10263000430C03D5FFF7E6FDFFF780FFF0BCBDE8D4
:10264000008C2DE9804C70B49A46934691E838008E
:1026500007C810F0804F08BF13F0804F03D100F07F
:1026600005F8FFF76BFFF0BCBDE8008C20F07F475A
:1026700023F07F4C80EA030000F0004007EB0C03DE
:10268000A3F57C53A3F1FE0392F0000F00F0B3809A
:1026900095F0000F00F077802DE901494FEA1140D5
:1026A00021EA00484FEA144624EA064700FB06FCEC
:1026B00008FB06F607FB08F818EB06484CEB164C2F
:1026C00000FB07F718EB07484CEB17404FEA124B9B
:1026D00022EA0B4E4FEA154625EA06470BFB06FC9D
:1026E0000EFB06F607FB0EFE1EEB064E4CEB164CE1
:1026F0000BFB07F71EEB074E4CEB174B18EB0B08C9
:1027000040F1000018EB0E0B58EB000840F1000000
:102710008F1A4FF000014FF000063CBFC943661B03
:1027200014BFB5EB040C00213CBFC943F61B4FEAB4
:10273000174427EA04454FEA1C472CEA074C04FBE0
:10274000076205FB07F70CFB05F616EB074642EBA5
:10275000174204FB0CFC16EB0C4642EB1C421BEB35
:10276000060658EB020241414EEA8E0E46EA9E06EC
:1027700001D5BDE80189B619524141EB0101A3F130
:102780000103BDE801894FEA144524EA05464FEAF2
:10279000114721EA074C05FB07F406FB07F70CFB82
:1027A00006F111EB074144EB174405FB0CFC11EB60
:1027B0000C4144EB1C444FEA124722EA074C05FB4C
:1027C00007F206FB07F70CFB06F616EB074642EB93
:1027D000174205FB0CFC16EB0C4642EB1C456A1835
:1027E00054F1000148BF7047B619524141EB010155
:1027F000A3F10103704795F0000F37D04FEA114263
:1028000021EA02464FEA144724EA074C02FB07F18B
:1028100006FB07F70CFB06F414EB074441EB1741EA
:1028200002FB0CFC14EB0C4441EB1C414FEA154736
:1028300025EA074C02FB07F506FB07F70CFB06F63B
:1028400016EB074645EB174502FB0CFC16EB0C4656
:1028500045EB1C42121951F1000148BF7047B619EF
:10286000524141EB0101A3F1010370474FEA1445C6
:1028700024EA05464FEA114721EA074C05FB07F118
:1028800006FB07F70CFB06F212EB074241EB174180
:1028900005FB0CFC12EB0C4251EB1C414FF0000607
:1028A00048BF7047921841EB0101A3F10103704743
:1028B00003B401984100009850EAC12018BF0420D9
:1028C0004A0D18BF40F0010040F2FF72B2EB515FB9
:1028D00008BF40F00200012808BF052002B0704781
:1028E00030380A2801D201207047002070478A68DA
:1028F000002A02DC0022FEF7D5BE521E8A604A681A
:10290000C0B2531C4B6010707047000010B5002916
:102910000AD00878002807D005487844FFF778FAED
:10292000002801D0002010BD0248784410BD0000EE
:10293000A20100009A01000010B500290AD0087811
:10294000002807D005487844FFF762FA002801D034
:10295000002010BD0248784410BD00009201000024
:102960008A010000F1EE100A4FF6FF71C0F2C0318B
:1029700020EA010040F04070E1EE100A7047FEF7D7
:10298000EFB9FEF723BB00000000000000000000CC
:102990003031323334353637383941424344454695
:1029A000403058003031323334353637383961628F
:1029B0006364656640307800040000080000000091
:1029C000000000020001000010303132333435368F
:1029D000373839616263646566787000303132334C
:1029E0003435363738394142434445465850003A29
:1029F0007474003A7474003A747400000240000069
:102A0000000000A00000000005400000000000C819
:102A1000000000000C4000000000409C000000008E
:102A2000194000000020BCBE00000000344000003F
:102A3000BFC91B8E00000004B5400000504BCFD032
:102A40006607E2CF010000006C4100003E8251AAFF
:102A5000DFEEA73401000000D9420000DCB5A0E29F
:102A60003A301F97FFFFFFFFB4450000FD25A0C8C7
:102A7000E9A3C14FFFFFFFFFFF3F00000000008000
:102A800000000000FF3F0000000000800000000088
:102A9000736F6D657468696E67000000E82B000055
:102AA0000000002010000000D0020000F82B000001
:102AB0001000002060030000F00200001C00000075
:102AC00043000000F8FFFFFF0C0000000E000000B4
:102AD0000F0000002E000000100100004300000065
:102AE000F8FFFFFF0040404040404040404041412F
:102AF00041414140404040404040404040404040D3
:102B0000404040404005020202020202020202026C
:102B10000202020202202020202020202020200269
:102B200002020202020290909090909010101010F9
:102B30001010101010101010101010101010101095
:102B40000202020202028888888888880808080829
:102B500008080808080808080808080808080808F5
:102B6000020202024000000000000000000000001D
:102B70000000000000000000000000000000000055
:102B80000000000000000000000000000000000045
:102B90000000000000000000000000000000000035
:102BA0000000000000000000000000000000000025
:102BB0000000000000000000000000000000000015
:102BC0000000000000000000000000000000000005
:102BD00000000000000000000000000000000000F5
:102BE00000000000000000000000000000000000E5
:082BF0000000000000000000DD
:04000005000003F5FF
:00000001FF
